:1000000000F00120090100000F010000490E00006E
:100010008501000089010000D101000000000000FE
:1000200000000000000000000000000019020000B5
:100030001D02000000000000210200002502000057
:100040003502000035020000A9060000A9060000E4
:10005000A90600003105000035020000450500003A
:1000600035020000650E00003502000000B583B0C7
:100070001D4B02E0002243F8042B1C4A9342F9D3A3
:1000800000F018FA694601A800F014F9184D194B50
:10009000ED1AAD10002404E0164B53F824309847B5
:1000A0000134A542F8DC144D144BED1AAD100024B8
:1000B00004E0124B53F8243098470134A542F8DC91
:1000C0000099019800F098FE05460D4C0D4BE41A7E
:1000D000A41004E0013C0B4B53F824309847002C4B
:1000E000F8DC284600F0B2F88CBB002038BC0020B9
:1000F0008CBB00208CBB00208CBB00208CBB002064
:100100008CBB00208CBB002008B5FFF7AFFF00BE02
:10011000FEE71EF0040F0CBFEFF30880EFF3098039
:100120007146414A10472DE9F04182B004460D4620
:10013000124B5F6BD3F838809E6A1B6B13F0020F73
:1001400003D00E4BDB6A002B0BDB0D4800F0F0F800
:10015000009543463A463146204600F013F900BE6A
:10016000FEE74BF6AB6100F087F90028EDD0034BBA
:100170004FF00042DA6202B0BDE8F08100ED00E02D
:100180002C19000000BEFEE71EF0040F0CBFEFF3B9
:100190000880EFF309807146244A10472DE9F041A9
:1001A00082B004460D46084B5F6BD3F838809E6AD8
:1001B000064800F0BDF8009543463A4631462046D1
:1001C00000F0E0F800BEFEE700ED00E03C190000A2
:1001D0001EF0040F0CBFEFF30880EFF309807146A7
:1001E000134A10472DE9F04182B004460D46084BF2
:1001F0005F6BD3F838809E6A064800F099F8009546
:1002000043463A463146204600F0BCF800BEFEE7C1
:1002100000ED00E04819000000BEFEE700BEFEE76A
:1002200000BEFEE770470000270100009D010000AE
:08023000E501000000BEFEE73D
:1002380008B50A460146024800F076F800F00AF8C8
:10024800B817000008B5024800F06EF8FEE700BFD6
:10025800E417000008B5034800F080F80120FFF714
:10026800F1FF00BFFC17000008B503460C4A1268EE
:100278005AB10B4A1068033323F003030344094AB5
:10028800934206D8064A136008BD054A064911601C
:10029800EFE700F0FDFD0C2303604FF0FF30F3E7BC
:1002A8008CBB002038C4002038BC00200123036028
:1002B800014B0B60704700BF000000202DE9F043A0
:1002C80085B004460F4643563BBB042528462146C5
:1002D800ABBE0546384605B0BDE8F08314F901CB3E
:1002E80003F110026A4402F810CC0133AB42F5D393
:1002F80010336B44002203F8102C4FF00408E94631
:1003080040464946ABBE8046761B002EE2D03546B5
:10031800102E28BF10250023E8E70E46F5E708B59C
:10032800FFF7CCFF08BD00000FB400B583B004ABE5
:1003380053F8042B01938021074800F0E3FD0028BF
:1003480004DC03B05DF804EB04B0704701460248D2
:10035800FFF7E5FFF5E700BF98BB002010B504469E
:1003680000F09CFD01462046FFF7D9FF0121024815
:10037800FFF7D5FF10BD00BF741B0000F8B5044699
:100388000D4617461E462748FFF7CEFF2168264828
:10039800FFF7CAFF61682548FFF7C6FFA168244830
:1003A800FFF7C2FFE1682348FFF7BEFF2169224833
:1003B800FFF7BAFF61692148FFF7B6FFA169204836
:1003C800FFF7B2FFE1691F48FFF7AEFF1E48FFF7CE
:1003D800ABFF29461D48FFF7A7FF1D4CE16A1D48E2
:1003E800FFF7A2FF216B1C48FFF79EFFE16B1B483C
:1003F800FFF79AFF15F0800F0AD115F4004F0CD1C2
:100408001748FFF791FF06991648FFF78DFFF8BDCB
:1004180039461548FFF788FFEFE731461348FFF7DD
:1004280083FFEDE7101800002018000030180000C6
:1004380040180000501800006018000070180000F4
:100448008018000090180000A0180000AC180000E8
:1004580000ED00E0BC180000CC180000DC1800001B
:100468000C19000014190000EC180000FC1800001A
:1004780083691A888A4201D0002070470268033ACB
:10048800012A01D900207047023383610120704797
:10049800034B9A68034B1341034A1360704700BF2C
:1004A8000070004000E1F5050800002008B5034A87
:1004B800034B9A60FFF7ECFF08BD00BF0000000087
:1004C80000ED00E000F1804000F5883001607047E1
:1004D80000F1804000F588300068704700F18040E6
:1004E80000F580300160704700F1804000F58030F1
:1004F8000068704700B583B0014600230193382097
:10050800FFF7ECFF40214420FFF7E8FF02E0019BE2
:1005180001330193019B1F2BF9D94820FFF7E4FF12
:1005280003B05DF804FB00000123024A1360024A8D
:10053800D362704718BC0020005000400123024AD3
:100548001360024AD36270471CBC00200060004060
:1005580010B5044628B1054B2360012363600020D1
:1005680010BD09210248FFF763FEF4E70070004060
:100578005819000038B50C46054668B16B6883B158
:100588002B689BB12A68D36C23EA0403D364136DE8
:100598002342FCD1002038BD20210748FFF748FE40
:1005A800ECE721210448FFF743FEE9E7222102484E
:1005B800FFF73EFEE6E700BF5819000038B50C46C5
:1005C800054650B16B686BB12B6883B12A68536CD0
:1005D80023EA04035364002038BD3C210648FFF792
:1005E80027FEEFE73D210448FFF722FEECE73E2116
:1005F8000148FFF71DFEE9E75819000070B50C46E1
:1006080015460646002836D07368002B38D0336864
:10061800002B3AD0336805F0070114F0010F04D01D
:1006280099601C4A2A411C48026014F0080F00D047
:10063800596114F0100F00D0996114F0400F00D0E8
:10064800196214F4807F00D0996214F4806F00D08E
:10065800196314F4006F00D0596314F4805F00D05C
:10066800996314F4005F00D0D96314F4804F00D06C
:100678001964002070BD4B210848FFF7D9FDC3E776
:100688004C210648FFF7D4FDC1E74D210348FFF789
:10069800CFFDBFE700E1F50508000020581900006C
:1006A800704710B5029C00F101504FF0000C07E0B4
:1006B80004FB0C3E31F81EE020F81CE00CF1010CA4
:1006C8009445F5DB10BD30B50C4600F1015E1546CA
:1006D800002A03DBAD114FF0000C26E002F13F05C4
:1006E800F8E703EB8C1103EBCC120EEBC20204EB20
:1006F800C101D1E90001C2E9000101333F2BF0DD5E
:1007080000220EE002EB8C1102F1400303EBCC1344
:100718000EEBC30304EBC101D1E90001C3E90001F9
:1007280001323F2AEEDD0CF1010C654501DB0023A7
:10073800E4E730BD2DE9F843064690461D46DDF84E
:100748002C900F4601B12AB93FB9B8F1000F17D163
:10075800002103E04FF4B27100E044213402204646
:10076800FFF7B0FE2046FFF7B3FE01466F48FFF7DC
:10077800DBFD47B9B8F1000F40F0AF80BDE8F88362
:100788004FF49071EAE704F13C07B1043846FFF7EB
:1007980099FE3846FFF79CFE01466548FFF7C4FD01
:1007A80004F14003089945EA01411D461846FFF740
:1007B80089FE2846FFF78CFE81B25E48FFF7B4FD3C
:1007C8002846FFF785FE010C5B48FFF7ADFD04F1F5
:1007D80044050A9F099B47EA832739462846FFF7BD
:1007E80071FEA80AFFF774FE099B834218D82846B1
:1007F800FFF76EFE810A5148FFF796FD2846FFF77E
:1008080067FEC0F309014E48FFF78EFD04F1480565
:100818000C9F47EA892739462846FFF753FE08E028
:1008280039462846FFF74EFEE1E739462846FFF7E6
:1008380049FE2846FFF74CFEB9EB902FF5D828461D
:10084800FFF746FE810A3F48FFF76EFD2846FFF78F
:100858003FFEC0F309013C48FFF766FD04F14C0573
:100868000D990E9B43EA81212846FFF72BFE284667
:10087800FFF72EFE810A3548FFF756FD2846FFF799
:1008880027FEC0F309013248FFF74EFD04F1500579
:100898000F99109B43EA81212846FFF713FE28464B
:1008A800FFF716FE810A2B48FFF73EFD2846FFF7A3
:1008B8000FFEC0F309012848FFF736FD04F138059B
:1008C80001212846FFF7FEFD2846FFF701FEC0F389
:1008D80009012248FFF728FD4CE704F10C05B10493
:1008E80001F500312846FFF7EDFD2846FFF7F0FD3A
:1008F80001461B48FFF718FD04F110051199284619
:10090800FFF7E0FD2846FFF7E3FD01461548FFF72E
:100918000BFD083401212046FFF7D4FD2046FFF7E0
:10092800D7FD01461048FFF7FFFC27E78C190000A8
:10093800A0190000B8190000D0190000EC19000037
:10094800FC1900000C1A00001C1A00002C1A0000E8
:100958003C1A00004C1A00005C1A00006C1A0000D7
:100968007C1A0000901A0000A01A0000024B1B68B5
:10097800002BFBD0704700BF2CBC00202DE9F843AA
:100988000F4690461E460A4601464046FFF79BFE24
:1009980031462648FFF7C8FC750006EB4604A4025A
:1009A80004F500794FF480614846FFF78BFD48460F
:1009B800FFF78EFD01461E48FFF7B6FC04F52A79BD
:1009C80041464846FFF77EFD4846FFF781FD014650
:1009D8001848FFF7A9FC04F52B7479002046FFF7A7
:1009E80071FD2046FFF774FD01461348FFF79CFC94
:1009F800124B30221A60124B4FF40072C3F8802158
:100A08001A60AB195B00023301249C402146202068
:100A1800FFF764FD04212420FFF760FD2146142020
:100A2800FFF75CFDFFF7A2FFBDE8F883B41A0000EA
:100A38008C190000C01A0000D41A000028BC00203D
:100A480000E100E02DE9F0478EB0B248FFF76CFCFA
:100A58004FF6FF710C20FFF741FD002727E0013416
:100A680040F2F1339C421FDCAB4D05EBC4035E68DA
:100A78003046FFF73FFD55F834309842EFD0214615
:100A8800A648FFF751FC3146A548FFF74DFC304614
:100A9800FFF730FD0146A348FFF746FC55F8341030
:100AA800A148FFF741FCDAE7002F1EDD0137012FCF
:100AB8002EDC994C256861689C48FFF735FC29466F
:100AC8009B48FFF731FC00234FF4002240F2F2313B
:100AD8002046FFF753FF9748FFF726FC0024964B64
:100AE8001C609648FFF720FCBAE7002140F2F1337A
:100AF8009942DBDC884A02EBC1025368C3F3072042
:100B08000C3023F47F4303EB002353600131EDE7FE
:100B18008B48FFF709FC0025874B1D60894B93E83C
:100B280007000EAB03E907000A958748FFF7FCFBAF
:100B380000E00135012D18DC0024022CF9DC05EB5E
:100B480045030EAA02EB840252F80C0C800400EB59
:100B5800C3400323009323464FF4A2527B4900F578
:100B68000020FFF79EFD0134E7E7794B19887948A3
:100B7800FFF7DAFB784B19887848FFF7D5FB784BF5
:100B880019887848FFF7D0FB774B19887748FFF723
:100B9800CBFB774B19887748FFF7C6FB764B19884C
:100BA8007648FFF7C1FB7648FFF7BEFB41F2041712
:100BB80009970024089407940694059404940394D0
:100BC800012502954FF4A256019600942B462A4619
:100BD80029460220FFF7AEFD09970894079406946A
:100BE8000594049403940295019600942B4622469A
:100BF80029460320FFF79EFD099708940794069459
:100C08000594049403940295019600942B46224679
:100C180029460420FFF78EFD099708940794069447
:100C28000594049403940295019600942B462A4651
:100C380029460820FFF77EFD099708940794069433
:100C48000594049403940295019600942B46224639
:100C580029460920FFF76EFD099708940794069422
:100C68000594049403940295019600942B46224619
:100C780029460A20FFF75EFD002C03DD4FF0000A2D
:100C8800D1462CE03F4B4FF40072C3F880211A6024
:100C98003D4B28221A6007212420FFF71FFC4FF63E
:100CA800FF711820FFF71AFC00210C20FFF716FC33
:100CB80040F21C711020FFF711FCFFF757FE1E4B86
:100CC80000221A600134D7E751463048FFF72CFB61
:100CD8004FF00008B8F1000F0CDD0AF1010ABAF173
:100CE800010FF1DD49462A48FFF71EFB48460EB0C2
:100CF800BDE8F0870EAB03EB880353F8105CAD0436
:100D080005F520250AEB4A0305EBC34505F1015516
:100D1800002442E0E01A0000989B0020281B0000F5
:100D2800381B0000481B0000601B0000F01A000080
:100D3800041B0000741B00002CBC0020181B0000C2
:100D4800781B0000581C0000881B0000142200209B
:100D5800000048209C1B000000004C20A81B00003D
:100D680000005020B41B000000006020C01B0000E1
:100D780000006420CC1B000000006820D81B000085
:100D8800E41B000000E100E028BC0020F81B000084
:100D9800341C00000023EB53013441F203139C423E
:100DA8001BD8670004EB08060D4B33F8162015F81E
:100DB80014309A42EED009F1010921460948FFF79B
:100DC800B3FA15F814100848FFF7AEFA044B33F8D5
:100DD80016100648FFF7A8FADCE708F1010879E7DA
:100DE8000C000020041C0000101C0000241C000043
:100DF80010B5104C2046FFF7ABFB01224FF4807171
:100E08002046FFF7FBFB022201212046FFF7F6FBF5
:100E18004FF480712046FFF7D1FB4FF480712046D4
:100E2800FFF7A8FB0024044B1C60FFF70BFE2046CD
:100E380010BD00BF20BC00202CBC0020FEE7000035
:100E480004207146084203D0EFF30980024908479D
:100E5800EFF3088000490847450E000008B5094B24
:100E68004FF40072C3F88021C3F88020BFF34F8F7E
:100E7800BFF36F8F0121044B1960044B1868FFF70B
:100E88002DFB08BD00E100E02CBC002028BC0020A0
:100E9800014B1868704700BF28BB0020034613F8B1
:100EA800012B002AFBD1181A0138704730B51446B7
:100EB800002C05461A469BB005DA8B2303604FF0D9
:100EC800FF301BB030BD4FF40273ADF80C300CBFCF
:100ED800234604F1FF33029305934FF6FF73009105
:100EE8000491ADF80E3069461E9B00F073F8431C60
:100EF800BCBF8B232B60002CE3D00022009B1A7010
:100F0800DFE7000007B5009313460A460146034889
:100F18000068FFF7CBFF03B05DF804FB28BB002097
:100F28002DE9F0471F468E688246BE420C46904621
:100F38000B682CD88A8912F4906F26D065690969E4
:100F480005EB4505A3EB010905EBD5757B1C4B4467
:100F58006D109D4238BF1D46530527D5294600F020
:100F680069FB064660B34A46216900F0D3FAA389B3
:100F780023F4906343F08003A38126614E442660E6
:100F88003E466561A5EB0905A560BE4200D93E460F
:100F980032464146206800F0CBFA0020A3689B1B2C
:100FA800A360236833442360BDE8F0872A4600F035
:100FB800B5FB06460028E0D15046216900F0D2FA78
:100FC8000C23CAF80030A3894FF0FF3043F04003E8
:100FD800A381E9E72DE9F04F98468B8907461B0660
:100FE8000D4614469DB00ED50B6963B9402100F03B
:100FF80021FB2860286120B90C233B604FF0FF30AB
:10100800D0E040236B610023099320238DF8293019
:1010180030234FF00109CDF80C80DFF8A0818DF85E
:101028002A3023469A4613F8012B0AB1252AF9D10A
:10103800BAEB040B0BD05B46224629463846FFF72D
:101048006FFF013000F0A980099A5A4409929AF872
:101058000030002B00F0A18000234FF0FF32CDE9D3
:1010680005230AF1010A049307938DF853301A9364
:101078005446052214F8011B504800F03DFA049A22
:10108800D8B9D00644BF20238DF85330110744BF88
:101098002B238DF853309AF800302A2B15D054465C
:1010A80000204FF00A0C079A214611F8013B303B0B
:1010B800092B4DD9B0B1079214E0A0EB080309FA47
:1010C80003F31343A2460493D2E7039B191D1B683D
:1010D8000391002BBBBF5B4242F0020207930793C8
:1010E800B8BF049223782E2B0CD163782A2B34D1E5
:1010F800039B02341A1D1B680392002BB8BF4FF0E4
:10110800FF330593DFF8B8A003225046217800F09A
:10111800F3F938B14022049BA0EB0A008240134344
:101128000134049314F8011B062226488DF8281070
:1011380000F0E2F9002838D0234B1BBB039B073390
:1011480023F0070308330393099B3344099368E7A3
:101158000C4601200CFB0232A6E700234FF00A0CD4
:10116800194601340593204610F8012B303A092A14
:1011780003D9002BC6D00591C4E7044601230CFB14
:101188000121F0E703AB00932A4638460F4B04A928
:10119800AFF30080421C0646D6D1AB895B063FF50B
:1011A8002DAF09981DB0BDE8F08F03AB00932A4618
:1011B8003846064B04A900F07DF8EBE7641C0000F4
:1011C8006A1C00006E1C000000000000290F0000CF
:1011D8002DE9F047164699468A680B6907469342F7
:1011E800B8BF1346336091F843200C46DDF82080E1
:1011F8000AB1013333602368990642BF336802336A
:101208003360256815F0060506D104F1190AE3686C
:1012180032689B1AAB422BDC94F84320131E2268D9
:1012280018BF0123920630D44946384604F14302D8
:10123800C047013023D02368226903F00603042B3A
:1012480014BF002533684FF0000608BFE56804F1B5
:101258001A0408BFED1A54F8123C08BF25EAE575D0
:101268009342C4BF9B1AED18B5421AD1002008E07A
:101278000123524649463846C047013003D14FF052
:10128800FF30BDE8F0870135C1E73020E11881F86B
:1012980043005A1C94F845102244023382F8431044
:1012A800C2E70123224649463846C0470130E6D006
:1012B8000136D9E72DE9FF470F7E9146782F804602
:1012C8000C469A460C9D01F1430207D8622F0AD8B2
:1012D800002F00F0D580582F00F0C18004F142059E
:1012E80084F842703AE0A7F16303152BF6D801A100
:1012F80051F823F05513000069130000E5120000AF
:10130800E5120000E5120000E51200006913000074
:10131800E5120000E5120000E5120000E5120000E9
:101328006F1400009513000029140000E512000056
:10133800E512000091140000E5120000951300006A
:10134800E5120000E5120000311400002B681A1D98
:101358001B682A6004F1420584F842300123A0E0AA
:1013680020682B68070603F10401296001D51E686F
:1013780003E04606FBD5B3F90060002E03DA2D23FF
:10138800764284F843300A23594812E02B682068D3
:10139800191D2960050601D51E6802E04106FBD526
:1013A8001E886F2F0CBF08230A235148002184F898
:1013B80043106568002DA8BF2168A560A4BF21F06F
:1013C800040121600EB9002D4BD01546B6FBF3F190
:1013D80003FB1167C75D05F8017D3746BB420E4622
:1013E800F4D9082B0BD12368DE0708D52369616877
:1013F8009942DEBF302305F8013C05F1FF35521B49
:1014080022614B4621464046CDF800A003AAFFF7CB
:10141800DFFE01304AD14FF0FF3004B0BDE8F0875D
:10142800236843F0200323607827324884F8457006
:10143800236829681F0651F8046B02D45F0648BF69
:10144800B6B2DF0748BF43F02003296048BF2360D6
:101458001EB9236823F0200323601023A6E724483D
:10146800E4E71546BDE72B682668181D6169286002
:1014780035061B6801D5196002E07006FBD5198096
:10148800002315462361BCE72B6800211A1D2A603A
:101498001D686268284600F02FF808B1401B60609C
:1014A80063682361002384F84330AAE72A46494643
:1014B80040462369D0470130ADD023689B0713D439
:1014C800E068039B9842B8BF1846A6E70123324656
:1014D80049464046D04701309DD00135E36803991D
:1014E8005B1AAB42F2DCEBE7002504F11906F5E7DD
:1014F800751C0000861C0000034610B5C9B20244E2
:101508009342184601D1002003E0047801338C424D
:10151800F6D110BD0A44914200F1FF3300D1704763
:1015280010B511F8014B914203F8014FF9D110BDE4
:10153800884210B501EB020402D98442234607D839
:10154800431EA14208D011F8012B03F8012FF8E738
:10155800014602448A4200D110BD13F8014D02F839
:10156800014DF7E738B50546002940D051F8043C4D
:101578000C1F002BB8BFE41800F010F91C4A1368C0
:1015880033B9636014602846BDE8384000F007B9F5
:10159800A34208D9206821188B4201BF19685B68EB
:1015A80009182160EDE71A465B680BB1A342FAD926
:1015B80011685018A0420BD120680144501883428A
:1015C8001160E0D118685B68084410605360DAE77E
:1015D80002D90C232B60D6E7206821188B4201BF63
:1015E80019685B680918216063605460CBE738BDEF
:1015F80030BC002070B50E4E0C463168054611B956
:1016080000F0BCF830602146284600F0B7F8431CCB
:101618000AD0C41C24F00304A04207D0211A28468B
:1016280000F0ACF8013001D14FF0FF34204670BD16
:1016380034BC00202DE9F041CD1C25F00305083508
:101648000C2D38BF0C25002D074601DBA94205D912
:101658000C2300263B603046BDE8F0812E4E00F09A
:101668009DF833681C4634BB29463846FFF7C2FF4D
:10167800431C04464DD134682646002E40D12368C9
:101688003146384604EB030800F078F880453AD133
:1016980023680335ED1A25F0030508350C2D38BFEE
:1016A8000C2538462946FFF7A5FF01302BD02368C3
:1016B8002B4423600EE02268521B1ED40B2A16D935
:1016C8006119A342256018BF5960636808BF31607B
:1016D80062514B60384604F10B0600F060F826F0C2
:1016E8000706231DF21AB6D09B1BA350B3E7626806
:1016F800A3420CBF32605A60ECE723466468B2E745
:1017080034467668B9E70C2338463B6000F047F862
:10171800A1E72560DEE700BF30BC00202DE9F041DD
:10172800804614460E4621B91146BDE8F041FFF740
:1017380081BF2AB9FFF716FF25462846BDE8F08184
:1017480000F02EF88442074602D8B4EB500F12D8A6
:1017580021464046FFF76EFF05460028EDD0BC4203
:101768002246314628BF3A46FFF7D4FE3146404666
:10177800FFF7F8FEE1E73546DFE7000038B500235C
:10178800054D044608462B60FEF76EFD431C02D14A
:101798002B6803B1236038BD90BB002070477047A9
:1017A80051F8043C181F002BBCBF0B58C0187047D9
:1017B8006173736572745F706172616D2829206648
:1017C80061696C65643A2066696C6520222573221C
:1017D8002C206C696E652025640A00004170706CCD
:1017E80069636174696F6E20457869746564210D59
:1017F8000A00000061626F727428292C20657869DC
:1018080074696E672E2E2E00537461636B206672A6
:10181800616D653A0A000000205230203D202025E5
:101828003038580A00000000205231203D20202581
:101838003038580A00000000205232203D20202570
:101848003038580A00000000205233203D2020255F
:101858003038580A0000000020523132203D20253F
:101868003038580A00000000204C52203D20202526
:101878003038580A00000000205043203D20202521
:101888003038580A0000000020505352203D2025CF
:101898003038580A000000004653522F4641523A49
:1018A8000A0000002043465352203D2020253038AE
:1018B800580A00002048465352203D202025303841
:1018C800580A00002044465352203D202025303835
:1018D800580A00002041465352203D202025303828
:1018E800580A0000204D4D464152203D20253038F1
:1018F800580A00002042464152203D202025303819
:10190800580A00004D6973630A000000204C522FEA
:101918004558435F52455455524E3D20253038585E
:101928000A0000005B486172644661756C745D0A68
:10193800000000005B4275734661756C745D0A00B7
:101948005B55736167654661756C745D0A000000DC
:101958002E2E2F73797374656D2F7372632F616DDB
:101968006265726D332D68616C2F616D6265726D91
:101978003376785F68616C5F7074666D6374726CDF
:101988002E63000074696C65206374726C3A2025BC
:101998006C780D0A00000000696E7075745F6164F0
:1019A80064726573733A20256C780D0A0000000094
:1019B8006E756D2061637469766520776F726473E4
:1019C8003A2025640D0A00006E756D20696E61630A
:1019D8007469766520776F7264733A2025640D0AFE
:1019E80000000000657874656E74303A2025640D37
:1019F8000A000000737472696465303A2025640D2A
:101A08000A000000657874656E74313A2025640D0B
:101A18000A000000737472696465313A2025640D08
:101A28000A000000657874656E74323A2025640DEA
:101A38000A000000737472696465323A2025640DE7
:101A48000A000000657874656E74333A2025640DC9
:101A58000A000000737472696465333A2025640DC6
:101A68000A00000076616C69646174653A20256437
:101A78000D0A00006F757470757420616464723AA1
:101A880020256C780D0A00006E756D20776F7264E2
:101A9800733A2025640D0A0076616C696461746587
:101AA8003A20256C780D0A0A00000000636F7079EF
:101AB8003A2025640D0A0000737461727420616411
:101AC80064723A20256C780D0A00000073697A6503
:101AD800203A2025640D0A00486172726973204318
:101AE8006F6C6F720A0000006269747374726561CA
:101AF8006D20616464723A256C780A0062697473B7
:101B0800747265616D20646174613A256C780A00AD
:101B1800646F20636F6D706172650D0A00000000CC
:101B2800696E6465783A202564200D0A000000007B
:101B3800616464723A20256C78200D0A0000000068
:101B480072656369657665642076616C75653A20AF
:101B5800256C78200D0A0000636F7272656374202B
:101B680076616C75653A20256C78200D0A000000B6
:101B780066696E69736820636F6D706172650A00CB
:101B88007374617274206461746120636F70790A80
:101B980000000000706978656C303A2025640A00FE
:101BA800706978656C313A2025640A007069786537
:101BB8006C323A2025640A00706978656C333A20E3
:101BC80025640A00706978656C343A2025640A0037
:101BD800706978656C353A2025640A00636F7079FE
:101BE80020646174612066696E69736865640A00BF
:101BF800756E726F6C6C3A25640A0000696E6465D4
:101C0800782025640A0000006F75747075745F642D
:101C180061746120256C780A00000000676F6C64AD
:101C28005F6461746120256C780A00004170706CF3
:101C380069636174696F6E2066696E69736865644B
:101C4800206572726F72733A2025640A00000000E2
:101C5800000000000100000002000000232D302BCE
:101C68002000686C4C006566674546470030313295
:101C780033343536373839414243444546003031EC
:0F1C88003233343536373839616263646566004C
:0D1C970000A41C000000000020E32E00004F
:020000042000DA
:1000000094BB00200000000080F0FA020000000015
:1000100000000000000000000000000000000000E0
:1000200000000000000000000000000000000000D0
:1000300000000000000000000000000000000000C0
:1000400000000000000000000000000000000000B0
:1003E000000000000000000000000000FF0000000E
:1003F00000000000000000000000000000000000FD
:1004000000000000000000000000000000000000EC
:1004100000000000000000000000000000000000DC
:1004200000000000000000000000000000000000CC
:100EB0000000FF0000000000000000000000000033
:100EC0000000000000000000000000000000000022
:100ED0000000000000000000000000000000000012
:100EE0000000000000000000000000000000000002
:100EF00000000000000000000000000000000000F2
:101A4000000000000000FF00000000000000000097
:101A50000000000000000000000000000000FF0087
:101A60000000000000000000000000000000000076
:101A70000000000000000000000000000000000066
:101A80000000000000000000000000000000000056
:101A90000000000000000000000000000000000046
:101DC000000000000000000000000000FF00000014
:101DD0000000000000000000000000000000000003
:101DE00000000000000000000000000000000000F3
:101DF00000000000000000000000000000000000E3
:101E000000000000000000000000000000000000D2
:101E100000000000000000000000000000000000C2
:101E200000000000000000000000000000000000B2
:101E300000000000000000000000000000000000A2
:101E40000000000000000000000000000000000092
:101E50000000000000000000000000000000000082
:101E60000000000000000000000000000000000072
:101E70000000000000000000000000000000000062
:101E80000000000000000000000000000000000052
:101E90000000000000000000000000000000000042
:101EA0000000000000000000000000000000000032
:101EB0000000000000000000000000000000000022
:101EC00000000000FF000000000000000000000013
:101ED0000000000000000000000000000000000002
:101EE00000000000000000000000000000000000F2
:101EF00000000000000000000000000000000000E2
:101F000000000000000000000000000000000000D1
:102210000000000003000D00020003000F00030097
:1022200002000E00020005000F00040003000D0074
:10223000040002000D00010005001000010006006E
:102240001100030005000F00040002000C00030051
:1022500005001000020004000F000100040010003F
:1022600002000A0017000300070013000500050024
:102270001200010006001300010005001100030018
:102280000200100003000700160003000500110003
:102290000300070014000200030011000100070002
:1022A00016000300070015000400050014000100DB
:1022B00004001200010006001500010006001500D0
:1022C00002000300110001000300110001000600DC
:1022D000150002000500140001000A0019000200A8
:1022E0000C001C000200040013000100080017008D
:1022F0000100050014000100090018000100080099
:102300001700020004001600010008001A00010076
:1023100009001B0001000A001D0001000600180052
:1023200002000A001C0004001100270003000A003C
:102330001E00030008001C0003000D002200030023
:1023400008001B0001000A001D0001000C001F0016
:1023500003001200230001000F001F000400090009
:102360001B0001000B001E000200160026000200E8
:1023700012001F0005000F001F0002001A002A00B3
:1023800005001B00290005001700250002001800A9
:10239000260005001400210003001700270002009A
:1023A0002000310007001800280001001700250058
:1023B00002001B0029000600110021000100150089
:1023C0002400030001000D00010003000F000300C2
:1023D00002000E00020004000E00030006001100BF
:1023E000030007001200040004000F0001000400B5
:1023F0000F00010003000E00010002000E000100AA
:1024000005001100030002000E000100040010008E
:1024100002000B001800060001000D00010005007D
:10242000110003000400100002000400100002006C
:1024300001000F00010005001300020001000D0063
:10244000010008001500040004001300010006004C
:10245000150001000700160001000500130002002E
:102460000400120001000A0019000400030011001A
:10247000010003001100020001000E00010009002C
:10248000180003000E001D000600090018000100DE
:102490000900180003000700160001000C001C00D2
:1024A00002000600150002000B001A0003000900DC
:1024B00018000300070019000300050017000100C1
:1024C00009001B0003000A001D000100060018009F
:1024D00001000A001D00010007001B0001000D00A3
:1024E0002100060004001800010006001A00010087
:1024F0000E00210005001300230006000C001F0041
:1025000003000B001A00030010002100010010005E
:102510002100010010001F00010011001E00010039
:102520001700250002000D001B0001001300210010
:102530000100180026000500150023000100150009
:1025400023000200150023000100160026000200EF
:1025500014002300020016002400010017002700C9
:1025600002001A002A0005001300220001001700D3
:1025700027000200060013000200060013000200FC
:1025800004001000020004000F000100060011000A
:102590000300050010000200060011000300060001
:1025A0001100030002000E000100040010000200F0
:1025B00007001400030007001400030003000F00CD
:1025C00001000B00180007000700140003000100C1
:1025D0000C00010003000F000300070014000300BB
:1025E00004001100010005001300020002000E00AB
:1025F000010006001300010005001300020007009F
:102600001600030008001700010007001600030071
:1026100005001400010005001300020001000E0077
:10262000010004001200010007001600030008006A
:10263000170001000C001B00040007001600010039
:102640000800170002000700160001000B001A0026
:1026500003000900190001000C001C000200080022
:102660001700010006001500010009001B0003000F
:1026700008001A0004000A001C0002000D001F00E0
:1026800005000A001C0002000500190001000B00F3
:10269000200001000C0021000200040016000100CF
:1026A0001400250003001500260002000F00220080
:1026B00002000F001F00020013002200030014009C
:1026C000210003001E002A0006001C002700050050
:1026D0001E002C0008001600210001001900270030
:1026E00006001900270003001B002A000300160043
:1026F000230005000F001E0001001B002B00070037
:10270000140022000100180026000300120021001E
:1027100001001A002A000500190029000400170012
:102720002700020007001300050003000F0003004C
:1027300005000F00040001000A00010002000D0066
:10274000010003000E00010004000F00010003005F
:102750000F00010003000F0001000A00160008002E
:102760000900160005000500120001000400110018
:102770000100050012000100040011000100080022
:1027800015000300040010000200090016000200FA
:1027900004001100010009001600040009001600E1
:1027A00004000500120001000A00180001000900E1
:1027B000180005000A0019000200080017000200B6
:1027C0000800160005001000200006000E001D0085
:1027D00008000900190001000B001A0003000A009C
:1027E000190004000600150001000B001A00050086
:1027F00006001500010010001F0008000A00190063
:1028000002001000200006000A001900020011005A
:10281000210006000A001A0001000700170001004D
:102820000700160001001000200005000B001D002D
:1028300003000A001D00010008001A000200100039
:10284000230005000C001F0003000D001F00050001
:102850000900180005001300240002000D001D00EF
:1028600001001600270005001400230002001900D3
:10287000270003001B00260004001A0025000300A7
:1028800023002F0009001D0029000500150020006D
:1028900001001A00250005001C0028000200150098
:1028A000230002001400240001001600260001008D
:1028B0001800260003001D00290001001A0028004E
:1028C00004001A00290002001F002E000700190052
:1028D0002700030003000F000100050011000300A2
:1028E00001000B00010001000A00010006001100B8
:1028F000030007001100060003000D0002000300A2
:102900000F00010005001200010006001300020084
:102910000500120001000500110003000800150069
:1029200004000400110001000A00170005000D005A
:102930001B0004000800150003000B001800040031
:10294000080015000400060013000100080015002F
:1029500003000A00170003000B0019000200060024
:10296000130002000D001B00040009001800030002
:102970000800170001000900180003000B001A00EE
:1029800005000D001D0002000C001C0002000900E3
:10299000180003000A0019000400080017000200D4
:1029A0000800170002000C001B00040007001600BE
:1029B00003000E001E0001001100210006000B00A4
:1029C0001A0005000D001C0005001300230006007E
:1029D0000C001D0001001000200003000F001F006C
:1029E00002000C001C0002000F0022000400110075
:1029F000250002000E00210005000D00200002004D
:102A00001000230005001400250003001400250019
:102A1000050016002400030012001F00030012002E
:102A20002100040016002300050017002200020008
:102A30001F00290004001500230002001B002600CF
:102A400004001700220002002300300005001A00D5
:102A5000290002001700250001001A0029000200C9
:102A60001800260003001A002500030016002400A9
:102A700001001C002A0006001D002C0005001C009F
:102A80002A000600060013000200070014000300DD
:102A900006001300020005001000010004000F00F2
:102AA000010006001100030003000F0001000300F5
:102AB0000F00010003000F000100040010000200DD
:102AC00006001200040004001000020006001300BB
:102AD00002000700140003000A00170006000C00A3
:102AE0001900050006001300010006001300010094
:102AF0000600120004000A00170005000B00180071
:102B000004000A00170005000800150003000C006F
:102B10001A000300160024000A000E001C00030027
:102B20000A00170003000B0018000400070016003D
:102B300003000800170002000A00190004000A0040
:102B40001900020009001800010007001600030028
:102B50000700160003000F001E00070010002000F1
:102B600006000B001B0001001000200006000500FD
:102B7000140001000F001F0005000C001E000400DF
:102B80001000240001001500290004001500260093
:102B900004000D001D0002001400250003000B00BE
:102BA0001D0003000E0021000300070019000100B2
:102BB0000D00200002000D00200002000800170098
:102BC0000100160024000100190027000400100075
:102BD0001F0001001400240001001C002800040054
:102BE0001800210002001400220001001C00270030
:102BF00005001A002500030020002C0004001B0023
:102C0000270003001500230002001F002E0007000C
:102C100019002500010014001F0001001A002900FE
:102C200001001E002F000300150025000100110007
:102C30002000030004001000020004001000020045
:102C400005001100030004001000020001000D0047
:102C500001000400100002000900160004000B002F
:102C60001800070006001200040001000D0001001A
:102C70000400100002000700140002000A00170000
:102C800006000F001C0008000500120001000600ED
:102C900013000100080015000300060013000200E5
:102CA00006001200040005001200010006001300D7
:102CB00002001200200007000C00190005000F00A0
:102CC0001D0004000F001D0004000B00190002008D
:102CD0000E001C0005000900160002000C001A007E
:102CE00003000C00190005000D001C0007000C007B
:102CF0001B0004000C001B0004000600150001006E
:102D00000700160001000900180001000D001F0057
:102D10000500070019000100070019000100050067
:102D2000170001000C001E00040008001A00020039
:102D30000F00230001000E00210001000F002200FF
:102D400002000B001E0002000D0020000200140013
:102D5000250003001200220005000E001E000100E5
:102D600012002300010010002100010012002300C6
:102D700003001700270003001500230001001700BF
:102D8000250002001900240004001F00290004008F
:102D90001C00260004001E002A0006001A00250060
:102DA0000300160021000300170020000100190095
:102DB000240004001C00280004001D002C00050055
:102DC0001B00270001001E002A0004001700270036
:102DD000020011001F00050012002100020019006E
:102DE0002900020005001000020002000E00010090
:102DF00004001000020007001400030003000F008D
:102E00000100080015000400050012000100070081
:102E10001400030009001600050002000E00010066
:102E20000700140003000900160005000B0018003D
:102E300004001200200006000B0018000600080025
:102E40001500040009001600040009001600040023
:102E50000B00180006000700130001000C001A0008
:102E600003000B00190002000A00170003000A000B
:102E7000180001000C001800020012001F000500DD
:102E80000900160002000E001C00050011002000C1
:102E900003001300210007000F001D0004000D00B7
:102EA0001B0004000B001A0005000C001B000400AE
:102EB0000B001B0001000C001B0004000C001E0096
:102EC00004000A001C0004000700190003000F00A2
:102ED000220002000A001C00020008001A00020082
:102EE0000A001C0002000C001F0003000D0020005F
:102EF000040011002400040009001C00010013005C
:102F00002700040019002A0006001400250005000F
:102F10000D001D0003001200230001001500260013
:102F200004000C001C0001001900270003001C0015
:102F30002700070021002B0009001C0026000400C8
:102F400024002E0009001E002800030018002300A2
:102F500001001B00270001001C00260004001B00CC
:102F6000250003001B002700010025003100090097
:102F70001B00270003001700220002001A0028008F
:102F800004001B00290005001E002D0006001B0088
:102F90002A00030003000F00010002000E000400DD
:102FA00006001200040002000E00020007001400D8
:102FB00002000900160005000500120001000600CD
:102FC00013000200080015000400080015000300AB
:102FD000060013000200060013000200090017009B
:102FE00001000B0018000400060013000100080097
:102FF0001400060002000E00010007001400030088
:103000000D001900030012001E0006000D0019003B
:1030100001000A00150004000C00180002000C005A
:10302000180001000700120001000E001A00040041
:103030001400210005000C00180002000C0019000B
:1030400005000D001B0002000E001E0004000D0014
:103050001D0002000700140002000F001D00030005
:103060000E001E0003000C001C0002000D002000DA
:10307000040007001900010008001A0002000F00F8
:10308000220006000D0020000200110024000400B0
:103090001200250005000C001F00010006001A00A8
:1030A00001000D00200002000F001F0002001000B0
:1030B000230005000B002000010008001C00010097
:1030C00019002A0006001B002A0003001400230038
:1030D00002000F001E00010017002500040022005E
:1030E0002E00080023002D000A001D00270002000A
:1030F00022002E0006001F002A000A0020002C00DB
:10310000040020002C0008001E002A0006001E00FB
:103110002A0004001A002600020021002D000700EA
:1031200023002F0009001600240001001C002A00C3
:103130000600230032000B00210031000A002000AD
:103140003000090006001300010009001600050008
:1031500004001100010002000F0001000900160028
:1031600004000B001800070006001200040006000F
:1031700013000200090016000500080015000300F6
:1031800005001200010004001100010006001200F9
:1031900004000600130002000500120001000800F0
:1031A000150003000C0019000500060013000100C3
:1031B0000700120001000E001B0001000E001B00A2
:1031C000010014002100070011001E0001000F0083
:1031D0001C0002000B00170003000D001900010085
:1031E0001300200004000F001B00030010001E004D
:1031F00004000F001E0001000C001A0001000A006C
:10320000180001000E001C0003000E001C0003004B
:103210000800170002000C001B0006000F001F0032
:1032200004000900180001000B001B000100100041
:10323000240001000D00200004000A001E0003000D
:103240000B00200001000B00200001000F002300F4
:1032500001001300270004001200250007000B00E6
:103260001E000100120027000600120027000600C1
:103270001100250002001400230004001D002D0091
:1032800006001B00290006001400220001001F0098
:103290002B00050025002F000C0021002B0008004A
:1032A0001D002800060014001F00010022002E004F
:1032B0000800240030000C001B0027000100220041
:1032C0002E000A001C00280004001F002B0005002F
:1032D00023002F0009001F002D0009001C002700FB
:1032E00005001A00280004001A00290002001A0034
:1032F0002A0003000A001900040008001700040057
:103300000500140001000400120001000500130074
:103310000400060014000300070016000300090063
:10332000180003000B00180006000600130001003F
:103330000D001A0009000A001700060003000F0024
:1033400003000700140003000B001800040006002F
:10335000130001000D001A0006000D001900030003
:103360000D00190001000D00190003000F001B00E3
:1033700005001400210005001300200002000F00CA
:103380001B0003000C00180004000A0016000100D6
:1033900013002000040012001F0001000E001C009A
:1033A00002000E001D0001000A00180001000B00C1
:1033B0001800040013002200050015002400070077
:1033C0000C001B0004000800170001000B001B008C
:1033D00001000700190001000E0021000500160081
:1033E0002A0005001400270007000E00210003003A
:1033F0001000230003001300260008001C002E000C
:1034000008001500260004000F00220002000F0033
:10341000220004000F00220004000B001E00010027
:103420000C001F0003000E002100050023003100E6
:103430000D001A00280005001D002B0008002200C6
:103440002E000A001F002B00070021002B0008009F
:1034500020002B0009001900240004002500310081
:103460000B001F002A0008001E002A00060025008D
:1034700031000B0022002E000A001B002700030071
:103480001900250001001F002B0005001E002A0066
:1034900006001700250001001F002E0007001A007B
:1034A000290001000B001A000700040012000100AF
:1034B00006001400030006001400030007001500B6
:1034C00006000400120001000600150002000B00B7
:1034D0001A0005000800170002000700160001008E
:1034E0000900180005000300100001000C0019007D
:1034F00007000C00190005000A0018000100130065
:10350000210007000C00190005000800140001004C
:1035100010001C00040012001F0005000900150027
:1035200001000D00190001000F001C000200120034
:103530001F0003000E001A0004000D001900030014
:103540000E001B0001001500230002000D001B00EF
:1035500001001200210004000B00190001000A0004
:10356000180001000E001C000200140023000400DB
:103570000F001D0004000C001C0002000D002000C4
:1035800002001200250005001000230005000E00B7
:10359000210005001300260006001300240002008D
:1035A0001300240001001600280002001B0029005F
:1035B0000500170027000300140026000100110079
:1035C000250002001400250005001200230003005E
:1035D0001000210001001100250002001D0028003C
:1035E00006001F002A00080013002100010014003B
:1035F000220001001F002B0005001B002700010016
:103600001D002900050022002E0008001C002700D4
:1036100005001D00290005001F002B0003002400E9
:1036200030000A001C00270005001F002B000700C7
:1036300023002F0009001B002700030020002C009E
:10364000060020002C0008001D002B0007001C00B5
:103650002B0004000600150002000A0019000600F5
:103660000800170004000800170004000C001B00ED
:10367000060005001400010005001300020004000C
:10368000120001000900180005000B001A000500D7
:1036900009001800030007001600010010001E00BA
:1036A00005000C001A0003000A00180001001000B9
:1036B0001E00070010001C0004000D00190001008E
:1036C00010001C0004000E001A00020010001C0074
:1036D00004000E001A00020011001E000200160075
:1036E0002400030012001F00030011001E0004004C
:1036F00011001E0002001700240008001200200024
:103700000700120021000200150022000600100030
:103710001F0002000E001D0001000F001D0003002D
:103720000E001E0003001200230003000E001E0006
:1037300003001300240002001A002B0007001100F0
:10374000220001000D00200001000E0021000100F8
:1037500010002300030013002700020021003000A6
:1037600009001C002C0008001A002B00070016009E
:10377000270005001B002B0007001A00280004008A
:1037800019002900050019002900050020002C005F
:1037900008001F002B0005001B00290006001E006A
:1037A0002C0009001F002B0007001F002B00070042
:1037B0001C00270005001D00290005001F002B002C
:1037C00007001A00250003001C0028000200220048
:1037D0002E0006001C00280004001B002600040028
:1037E000240030000C00230032000B0017002300DF
:1037F00001001D002900050016002400010017002B
:10380000250002000700160003000900180003004D
:103810000800170004000300120001000800170050
:1038200004000C001B00060009001800030005003E
:10383000140001000500140001000C001B0008002A
:103840000C001B0006000D001D0003000A001900FB
:1038500002000700160003000700140001000C001E
:103860001A0003000F001B00030011001E000200DD
:103870001600230007000C001800040011001E00B1
:1038800004000E001A00020012001F0005001000C4
:103890001D00030010001C0004000F001C000200AB
:1038A00017002400060012001F0003000B0019007F
:1038B0000100140021000300180026000500130079
:1038C000220005001900280007000C001C00010060
:1038D0001100210004001800290005001200220038
:1038E0000500120023000300120023000300120051
:1038F000230001001400250005001300240004002B
:1039000017002600050015002400030025003400E0
:103910000D001B00290006001800270006001300F8
:10392000220001001B002900060022002E000A00D0
:103930001E00290007001900270004001B002700B3
:103940000100240030000A001A00280004001F00B3
:103950002D000A0023002F000B001E002A00060085
:1039600021002C000A001A0028000400170025007E
:1039700001001B00290005002100300009001F0084
:103980002B00050023002F000B001C002B0004005F
:103990001A002900010020002E000A001D00290045
:1039A00005001F002E00050020002F000800170052
:1039B000260001000A001900040008001700010099
:1039C00003001400010004001500020004001200AE
:1039D00001000900180003000B001B0001000B0090
:1039E0001B0001000B001A00050006001500020074
:1039F0000900180003000800180001000400150069
:103A000002000400120003000E001C000300160058
:103A1000250006000B001700010011001D00070023
:103A20001600230007000E001B0001000E001B0003
:103A3000010010001C0004000E001A0004000A001F
:103A4000160001000E001A0002000E001B0001000B
:103A500015002200040013002100010015002400BD
:103A6000050012001F0001001900270004001100CA
:103A700020000100180028000300120022000700A7
:103A80000F001F000200100021000100110024009F
:103A900004000A001D0001001100220002001300B2
:103AA000240002001900290004001D002D00080058
:103AB0001900270004001400220001001C002A0045
:103AC0000600220031000A001F002E0007001E0021
:103AD0002C0008001D002B0007001A002500030021
:103AE00020002C0008002A00360012001E002A00C8
:103AF00006001F002D0009001E002C0008001B00FE
:103B00002900050020002C0006001E002A000400E9
:103B10001A00280004001E002D0006001E002D00C3
:103B200006001900270004001900270003002200E6
:103B3000310008001A0029000200190028000100C5
:103B40001E002D0006001A00290002001F002E0092
:103B50000500240033000A001F00300006001B008F
:103B60002C00020008001A0004000D001F000700CE
:103B70000B001D0007000C001E00040008001700C9
:103B800002000A00190004000E001D0008000900D0
:103B9000180001000D001C0005000E001D000600AD
:103BA0000D001C00050008001700020005001700AA
:103BB00001000A00190004000C001C0002000F00A4
:103BC0001D0003000F001B00030012001F00030074
:103BD00015002200060010001D00030012001F0047
:103BE0000300130020000400130020000400130051
:103BF000200002001700250004000F001C00020036
:103C000012001E00060012001F000100110020001B
:103C100001000E001A00020013002000040017002B
:103C200026000500160026000200160027000300EB
:103C300017002900030016002700030015002600C6
:103C400002001A002C0002001600270003001000DA
:103C5000210001001700270003001D002D000600B1
:103C60001B002B0006001800260002001900270088
:103C700006001700250001001C00270005001F009A
:103C80002D0009001E002C00090018002600050068
:103C900023002F000B00240030000C001F002D001B
:103CA00009001700250001001C002A0006001F0063
:103CB0002D00090020002C000600250031000B001B
:103CC0001D002C00050020003000090023003200F8
:103CD0000B001800260002001A002800040025002E
:103CE00034000D00240033000C00240033000A00CF
:103CF0001F002E0005001C002A00060021003000D5
:103D000005001D002D000600210031000A001B00E7
:103D10002C00020009001A0007000A001C00040021
:103D2000060018000200040012000100070019003C
:103D300003000A001C0006000C001B00060009001E
:103D4000180003000C001B0004000C001B00040002
:103D50000A001900040008001700020007001500FF
:103D600004000B001A0003000C001C0002000A00F3
:103D7000190002000900180003000D001B000200DA
:103D800012001E00060010001C0004000A001800AB
:103D900001000E001D00010011001E0002001400B1
:103DA0002100030013001E0001001600230005007F
:103DB0001A002800070010001D00030010001F005B
:103DC000020013002200030010001F0002000E007A
:103DD0001D0001001A002A0005001700260005003A
:103DE00015002600040015002600020009001C0032
:103DF000010012002300010013002200030019003B
:103E00002900040015002400030017002700020009
:103E10001800260003001B00290005001C002A00D2
:103E200006001C002A0006001300220001001F00EB
:103E30002C000E0020002E000B001A0028000400A9
:103E4000220030000D001B00290005001D002B0082
:103E500008001B00290005001500230001001800C0
:103E6000260002001F002D0009001A00280004008F
:103E7000210030000700260035000E002100300030
:103E800009001F002E0007001E002D0006001C0068
:103E90002B0004001A00290002001F002E0005005C
:103EA0001D002E0004001E002F0005002000310020
:103EB00007002200330007001B002C0002001B003B
:103EC0002B0004000700190003000700190003007D
:103ED0000C001E0004000B001D00030008001A0067
:103EE00002000A001C0002000D001D0003000D006E
:103EF0001D0003000B001A0003000B001A00030052
:103F00000D001D000200120022000500110021001A
:103F100004000C001C0002000B001B0001000B0041
:103F20001A0003000F001D00040009001700010023
:103F300011001E00020016002300050010001E00E4
:103F4000070010001F0001001500220004001400EB
:103F5000210003001600210003001C002A000700B6
:103F600016002400010011001E00020013002000B2
:103F7000020015002200040010001D0001001000C6
:103F80001F0001001A002A00030018002800030087
:103F90001200210004001C002C0005001D002E0052
:103FA0000A001600260001001B002B000700190064
:103FB0002900040018002800040014002300040055
:103FC0001800260003001A002800040020002F001B
:103FD00008001D002B00070019002700040019002D
:103FE000270004001B00290006001A002800040016
:103FF00021002F000B001E002C0008001F002D00C8
:1040000009002100300009001900270004001B00EE
:1040100029000500220030000C001D002B000700C5
:1040200020002F000600220031000A002500340085
:104030000B002100300009001C002A0006001D00B2
:104040002C0005002300320009001F002E0005008F
:1040500020002F00060020002F0008002200310061
:104060000800240033000A001F003000060018007A
:10407000290001000600170004000B001D000500C8
:104080001200250009000C001E0006000D001F0094
:1040900007000700190001000C001E0006000E00BA
:1040A0001E0004000C001C00010014002400070086
:1040B000160024000A000E001C0003000C001C0067
:1040C00002000D001D0002000F001F0004000C0084
:1040D0001A0001000D001B00020010001F0002006A
:1040E00010001D0001001A002700090010001E002A
:1040F00004000F001C00020012001F000500110048
:104100001E0001001A002800070012001F00010015
:1041100012001F0001001600230005000E001B0006
:1041200001001500230001001A00280007001B00F1
:10413000290008001D002D0006001C002C000500B1
:1041400015002400030018002800030017002700B2
:1041500002002100300009001F002E000700170098
:1041600025000100140024000100120021000100BC
:104170001D002D000800230031000D001E002D0041
:1041800006001800260002001C002A0006001C0081
:104190002B0004001A00280004001D002B0007005B
:1041A0001C002B0004001600240001001B002A0044
:1041B00003002100300009001E002C000800200030
:1041C0002F0008001D002C000500230031000D0009
:1041D0002200310008001D002C00050024003300DF
:1041E0000A001E002D0006001C002A0006001A000E
:1041F00029000200220031000800210030000700E1
:104200001B002A0001001B002A00030019002800DF
:1042100001001D002B000700220031000A001C00D5
:104220002D00030007001800050008001A00040014
:104230000B001D000300040016000100060017001B
:1042400005000700190003000A001C0004000F000D
:104250001F0004001300230008000E001E000400CD
:104260000E001E0004000A00190002000F002100C9
:1042700007000B001A0003000C001B0006001700CB
:10428000260007001700260007001600230005007F
:104290000D00190001000C001A0001000F001C00A5
:1042A000020013002000020013002000040014008C
:1042B000210003001500230001001400220001006A
:1042C0001600240001001600240001001A00280036
:1042D0000500170025000400160023000500160045
:1042E0002600020017002700020018002700060021
:1042F0001B002B00060015002700010017002500F9
:104300000200230032000B001800280004001D00EA
:104310002D0006001D002D000800190029000200D4
:104320001D002D0006001D002B0008001C002B00A6
:1043300004001D002B0007001B002A0003002300BF
:1043400032000B001F002E00070021003000090082
:104350002100300009001B00290005001B002A0075
:1043600003001F002E000700220031000A00230076
:1043700032000B0017002600010018002700010082
:10438000250034000D001E002D0006001F002E0029
:104390000700240033000C00240033000A0026002C
:1043A00035000E001C002B00040020002F00080028
:1043B0001E002D00060021003000070024003300FD
:1043C00008002100320008001E002F00030020001A
:1043D0003100050006001700040006001800020066
:1043E0000A001C00040009001B0003000500170060
:1043F00001000600180002000B001D0005000A0065
:104400001C0004000C001E00060009001B00030035
:1044100007001900010008001A0001000E0020002A
:1044200006000B001A0003000F001F0004000F001D
:104430001D0003001200210004000F001B000500F6
:104440000D001B00010012002100040015002200D5
:1044500004001D002B000A0011001E0002001300C2
:104460002000040012001F000100130020000400BF
:1044700012001F0003000F001C00020011002000AA
:104480000300150024000500180028000300130095
:10449000230001001400230002001700290003007C
:1044A0001500260002001300240004001B002B004E
:1044B00006001900290005001200210002001B005F
:1044C0002B0004001F002F0008001B002B0004001D
:1044D0001E002E0009001A002A0006001C002A00F7
:1044E0000600240033000C001E002D0006001D00F5
:1044F0002B000700250034000D001E002C000800D2
:104500001E002C0009001D002B0007001F002E00BC
:10451000070020002E000A001C002A0006001F00D1
:104520002D0009001E002C0008001F002D000900AE
:104530001F002F000A001A002A000500200030008A
:104540000900210031000A001B002C00020022009B
:1045500032000B001A002A00030019002900040091
:10456000220032000B0019002A0001001B002C0061
:1045700002002100320006001F0030000600230068
:10458000360009000B001D00070008001A00040097
:104590000800190006000E002000080009001B009A
:1045A00005000400160001000600180002000C00BF
:1045B0001E0006000A001C0002000B001D00030084
:1045C0000A001E00050007001A0004000A001C0073
:1045D00004000B001D0003000E001E0003000F006E
:1045E0001D0004000F001D00030016002500080038
:1045F0001500240003001500240003001300200010
:10460000020013002000020010001D000300130030
:10461000200004001A0028000500180026000300EE
:104620001A00280005001B002900050011002000C9
:1046300001001700260005001400230002001400EA
:104640002300020019002A000600120023000100C6
:104650001600270005001A002C0006001E002F007F
:10466000050019002B00050019002A00080014009D
:10467000250003001C002C0005001E002E000A006F
:104680001E002E000700150025000100190029005A
:1046900005001E002D0006001C002A0006001E005A
:1046A0002C0008001D002C000500230031000D0027
:1046B0001B00290006001F002D0009001D002B0013
:1046C000070020002E000A00220032000B00170015
:1046D000270002001D002D000800210031000C0001
:1046E000200030000B00220032000D0020003000BE
:1046F00009001B002B0004001F002F000A001E00F1
:104700002E0009001E002E000700230033000C00BD
:104710001B002B0004002A003A0013001E0030008A
:104720000A001D002F0005001C002E0006001900C5
:104730002B0003000D001F00070008001A000200F4
:104740000400160001000500170001000500160016
:10475000030009001B00050008001A0001000B00FF
:104760001D0003000A001C0002000B001D000500D4
:104770000500170001000700190001000B001D00D3
:10478000070008001A0002001000200006000F00B9
:104790002000010015002400070013002200030080
:1047A0001100200001001B0029000600130020005A
:1047B00006001A002800050012001F000300110067
:1047C0001E00040019002700060018002600020041
:1047D0001B00290005001C002A0007000F001E0016
:1047E00001001A002A0003001B002B000600140021
:1047F0002400010018002800040015002500010015
:104800001B002B00060013002200010019002900E4
:104810000200220034000C001700290001001100E2
:10482000220001001F002F000A00190029000500C6
:104830002000310007001D002D0009001600260091
:1048400002001B002B0006001A00280004002200B2
:1048500030000C00220030000C00210031000C0060
:104860001A002A000500220032000D001F002F0050
:1048700008001E002E000900220032000B001E005E
:104880002E0009001E002E000900210031000A0040
:10489000240034000F00230033000E0020003000FD
:1048A00009001700270001001F002F000A001D004B
:1048B0002F000900230035000F00270039001100E8
:1048C000210033000B002E004000180022003400AD
:1048D0000C00220034000A00250037000D001A00E9
:1048E0002C0002000E002000060007001900010045
:1048F00010002300070009001B00030008001A0035
:1049000001001000220008000C001E0004000F002F
:104910001F00050010002000050011002100040008
:104920001500250008001000200003000E002100E3
:1049300003000F00220006000A001C0002000A000B
:1049400019000200100020000300120021000200E4
:104950001400230004000E001A00040019002700B0
:1049600004001D002C0005001500230002001200A9
:104970001F0003001A00280005001B002900050085
:104980001900270003001C002A0007001A002A0053
:1049900006001C002C0008001C002C0005001B0059
:1049A0002B0006001A002900080018002800030048
:1049B0001D002D0008001800280004001C002A001B
:1049C00007001500250001001A002C0006001D003C
:1049D0002F00070020003000090018002800040004
:1049E000220032000D00220032000B0021003300B3
:1049F0000D001A002A0006001E002D0006002400EB
:104A000033000C002600360012001B002B000600AD
:104A10001B002B000400220032000D00200030009B
:104A20000900210031000C00260036000F00230091
:104A300033000E00250035001000220032000B006C
:104A4000200032000C00220034000C002100320053
:104A50000E002400360010001E00300008001F0069
:104A60003100090028003A001400220033000F0032
:104A7000220034000E00250037000F002000310016
:104A80000700240036000E00230035000B00220032
:104A9000350008000A001C00020011002400060076
:104AA0000F00220004000600180002000700160094
:104AB00001000E001E0004000D001F000500100084
:104AC0002200080009001C00010011002200020061
:104AD0001400250003001400230004000B001B0039
:104AE00001000E001E0001001200230003000B0055
:104AF0001B0001001100200001001500240003002C
:104B00001700260005001900270006001A002900DA
:104B1000080016002400010011001E0001001A0008
:104B200028000700160025000400130022000100E1
:104B30001B00290005001D002B00070017002500A1
:104B400004001900270004001800260002001D00C0
:104B50002C0005001D002B00070019002700030092
:104B60001A00280004001A002A0005001E002E006A
:104B700007001E002E0007001A002A000500220070
:104B800032000B00250035000E001E002E0007002D
:104B9000220032000B001B002B0006002400340012
:104BA0000D001A002A00030019002900020022004B
:104BB00032000B002800380011001C002C000500FA
:104BC0001D002D0006001D002D00060022003400EF
:104BD0000C001C002E0006001D002F000700260000
:104BE00038001000220034000C0018002A000400D5
:104BF0001B002D0007001B002D0007001D002F00CB
:104C00000900210033000B001E00300008002200C4
:104C100034000C00220034000C001C002E000600A2
:104C200019002B0003001E00300006002300350091
:104C30000B00250037000D001F0031000700230086
:104C400035000B000400160001000D001F000500D8
:104C50000700190001000D00200004000E002000D4
:104C600006000C001F0001000A001F0001000F00D9
:104C700023000A000400160001000C001E000400BE
:104C8000160026000900140025000500140023006A
:104C900004001200220005001200220007000F008D
:104CA000220004000D00200004000B001B00010086
:104CB0001600250006001A00280005001400230035
:104CC00004001400220001001900270004001B004A
:104CD000290005001400240001001700270003002C
:104CE0001900270003001A002800050017002700FC
:104CF00003001800280003001C002C0005001D0004
:104D00002D0006001B002B000400190029000400E0
:104D10001C002C0007001E002E0009001C002C00A7
:104D200008001F002F000A001E002E0009001F00AF
:104D30002F000A0019002B000500170029000300AE
:104D40001F002F000A002000300009001F002F0064
:104D500008002000300009001A002A0003001D008E
:104D60002D0006001B002B000400230033000C0064
:104D7000250035000E00230033000C002100330015
:104D80000B00240036000E001A002C000400240042
:104D900036000E001F00310009001E0030000A001E
:104DA0001D002F0009001F0031000B0018002A0011
:104DB00004001A002C0004001C002E000600210034
:104DC00033000B001B002D00050017002900010017
:104DD000210033000B00200032000A0028003A00B6
:104DE0001000220034000A002100330009002600D0
:104DF00038000E000B001D0003000C001E00040014
:104E000005001600030009001B0003000E0022002D
:104E100006000A001E00020008001C0001000C0031
:104E2000200005000500190001000A001C00040014
:104E30000D002000040011002100040019002700CB
:104E400004001200210002000C001C0002001400EB
:104E5000240007000D00200004000E001E000300C7
:104E6000160025000600140023000600150024008B
:104E700003001C002A0006001B0029000500210079
:104E80002F000B001500250001001600250004006E
:104E90001A002A0005001C002A0006001C002C0035
:104EA000070017002700020017002700010022005A
:104EB00032000B001A002A0003001F002F00080018
:104EC0001C002C00070019002B0003001B002B0006
:104ED00006001700270002001C002C0005001C0023
:104EE0002E0008001400260001001B002D00070002
:104EF000230035000F00220032000B002300330096
:104F00000C00220032000B00210031000A001E00BC
:104F10002E0007001D002D0006001D002F000700B9
:104F2000240036000E001C002E0006001E0030007B
:104F300008001D002F000700240036000E0022008C
:104F400034000C001B002D000500200032000A0078
:104F50002700390011001E00300008001C002E0040
:104F600008001E00300008001E00300008001E006F
:104F7000300008001F0031000B00210033000D003D
:104F80001F0031000900210033000B0030004200F7
:104F900018002E00400016002000320008002500F6
:104FA00037000D0010002300070008001A0002005F
:104FB0000600180002000A001D00010007001B0087
:104FC00002000C00200005000A001E00030005007E
:104FD0001900010009001D0002000D002000020060
:104FE0000C001F0001000B001D0003001500240031
:104FF00005001B002B000700120020000600160011
:105000002500040011002000030013002200050009
:1050100012002100010012002100040015002300ED
:1050200002001800260002001A00280004001C00DC
:105030002B0004001A0029000200190029000500B5
:105040001900290004001900290004001B002B008E
:1050500006001700270002001900290002001C00AA
:105060002C0005001E002E0007001D002D0008006A
:105070001C002C00070019002B0005002000310047
:1050800007002000310007001E003000080021004A
:1050900033000B001B002D00050018002A00020041
:1050A0001B002D0005001C002E0008001D002F0015
:1050B0000500230035000B001F00310009001D0012
:1050C0002F0007001C002E0006001B002D0005000D
:1050D000270039001100250037000F00220034009E
:1050E0000C00210033000B00200032000A002400D5
:1050F00036000E00210033000B00250037000F00A2
:10510000270039001100230035000D001A002C0083
:1051100004001F00310009001D002F0007002000BF
:1051200032000A00230035000D0019002B00030097
:10513000210033000B00230035000D002300350053
:105140000B00240036000C00220034000A0021006D
:10515000370009000C001F000300100022000800A7
:105160000A001C0002001200250005000E002100AC
:1051700005000E002000060009001B0001000C00C5
:105180001F0001001100240004000D002000020097
:105190000D00200004000C001F000300110021007E
:1051A000040017002800060010001E000500120071
:1051B000210002001400250005001000200003005B
:1051C0001700260005001800270006001C002A0012
:1051D00006001E002C0008001700250002001E001B
:1051E0002C0008001F002E0007001B0029000500EE
:1051F0001A002A0003001C002C00070019002900D7
:1052000004001900290004001A002A0005001B00F0
:105210002B0006001B002B0006001A002A000500C8
:105220001A002A0005001700270002001C002D00AC
:105230000300230033000C0018002A0002001900AC
:105240002B000300230035000B001F003100070076
:105250001B002D0005001A002C0004001E00300069
:1052600006002100330009001E0030000800200065
:1052700032000A001A002C000400200032000A004C
:10528000230035000D00200032000A001A002C0017
:1052900002001F0031000900210033000B0025002F
:1052A00037000F001D002F000700230035000D0000
:1052B000230035000D00230035000D0028003A00C2
:1052C00010001B002D000300200032000800230006
:1052D00035000B00230035000B00250037000D00C2
:1052E000230035000B0028003A0010002100330095
:1052F00009001C002E00040025003A000F002300C6
:1053000039000B001000230007000B001D000300F4
:105310000C001E0004000A001C0002000C001F000C
:1053200003001000230005001200250007001000F4
:10533000230007000C001F0003000E0021000500E1
:105340000E00210003000D00200002000D002000CF
:10535000040011002400040009001B0001000700E4
:10536000190001000C00210002000D0020000100C6
:105370001200230001001900270004001D002C006A
:1053800003001D002C00050015002400030013007D
:10539000230001001C002A0006001A002900020058
:1053A0001A00290001001700270001001E002E002E
:1053B00007001A002A000500180028000300150045
:1053C0002300010019002900040017002700010034
:1053D0001700270002001B002B00060019002900FF
:1053E000050018002A0004001C002E000600200002
:1053F00032000A001E00300008001C002E000600CB
:105400001D002F0005002000330006001C002E00A8
:1054100004001F0031000700220034000A002500AC
:1054200037000F00240036000E001E003000080078
:10543000220034000C001C002E0006001E0030006C
:10544000060019002B000100270039000F00220080
:1054500034000A001D002F000500260038000E0051
:105460001F00310007001C002E000400250037003B
:105470000D00220034000A001F0032000500230046
:10548000360009001E0030000600240036000C0023
:1054900023003600090029003C000F0026003B00D5
:1054A0001000240039000E0028003D0012002100E9
:1054B000370009000B001E00020008001C0003005A
:1054C00009001D0004000C00200005000C00210054
:1054D00002000E002100050009001C00010011005F
:1054E000240006001200220005000F001F00040027
:1054F0001300230006001100220002000F001F000D
:1055000004001200230001001A002B0009000C0007
:105510001F0001000D00210005000E002100030006
:105520001B002C0008001C002A00060017002500A4
:1055300002001800280003001600260002001A00CE
:105540002A0003001C002B0002001A0029000200A0
:105550001C002B0002001C002C0007002000300063
:105560000900250035000E001D002D0008001C005C
:105570002C00050019002900020019002900020072
:10558000220032000B001B002B00040019002B002E
:1055900005001A002C00040018002A0002001A005E
:1055A0002C0004001B002D000500210033000B001F
:1055B0001C002E0004002200350008001F003100EE
:1055C0000700240036000C0019002B0001001D000C
:1055D0002F0005002C003E001400260037000D00AF
:1055E0002A003B0011001F00300006002400360096
:1055F0000C001F00310007001E002F0005002400D2
:1056000035000B0029003A0010002A003B00110071
:105610001A002C0002002100330009002000320093
:1056200008001F003200050021003400070025009B
:1056300038000B00220035000800240036000C0062
:105640002000330006001F003200050026003B004A
:10565000100025003B000D0026003C000E00250038
:105660003B000D001100240008000A001F0001008B
:105670000B001F0006000B001F0003000E0022009D
:10568000070007001B00020007001B0001001300B9
:105690002600080017002800060012002300010061
:1056A0001400250005001200220005001500260048
:1056B00004001500240007001B00290006001B0041
:1056C0002B0007001500260004001300230006002D
:1056D0001A002A0006001900280001001A002800FC
:1056E00007001900290005001300230001001C0019
:1056F0002C0005001E002D0006001C002B000400DD
:105700002300320009001D002D0006002100320098
:1057100008001A002A0003001500250001002400DB
:1057200034000D001F002F0008001D002E00040093
:105730001F00300006002000320008002200350063
:105740000800240037000A001C002E00040022007C
:1057500034000A001D002F00050020003200080060
:105760001D002F0005001A002C000400210033004A
:1057700009002000320008002100330009001D004C
:105780002F0005002100320008002100320008002F
:105790001E002F0005001C002D00030029003B0007
:1057A0001100270039000F001D002E000400220008
:1057B00033000900230034000A00250036000C00E5
:1057C000250037000D00230035000B001D002F00C1
:1057D00005001D002F0005002200350008002100F3
:1057E000340007001F0031000700260038000E00BB
:1057F000250038000B00220035000800210037008A
:10580000090024003A000C00220038000A002E0093
:10581000440016000E0020000600140027000900B6
:105820001100240006000F002200060015002500CC
:1058300008001200220005001A002B0009001B00BE
:105840002A000900160025000400120021000100B2
:105850001800290009001400250005001600260084
:10586000020017002700030017002600050016009D
:10587000250006001700260005001B002B0006006F
:105880001800280003001700270003001A00280052
:1058900004001B002B000700140024000100160068
:1058A000260002001800280004001700270002004C
:1058B0001900270003001C002A0006001E002C000F
:1058C00008001700250001001600240001001E003A
:1058D0002F000500210032000800200030000900E0
:1058E0001E00300008002000320008001E002F00BB
:1058F00005002000310007001B002D0003001D00E3
:105900002F0005001F00310007001E0030000600B8
:105910001C002E0004002000320008001F00300090
:105920000600250037000D001C002E00040020009A
:10593000320008001E002F000500240033000A007A
:105940002B003A001100230034000A002600370023
:105950000B001F003000040020002F000400240072
:1059600033000A00240035000B00280039000F0026
:10597000270038000E00240035000B0024003500FD
:105980000900260037000B00250036000C0025001A
:1059900037000D00210033000900260038000E00FA
:1059A00022003500080028003B000E0022003700CE
:1059B0000C002C004100160026003B0010002100C6
:1059C00036000B000B001D0003000F002200060034
:1059D0000F001F0002001300230006001400250022
:1059E0000500120025000500130026000600130024
:1059F000260006001A002B000900120023000300F5
:105A000017002800040010002100010019002900DF
:105A100005001D002D0008001D002D0008001900C4
:105A200028000700150024000300180027000600C6
:105A30001D002D0009001B00290006001C002B0082
:105A400004001E002D0006001C002B000200200098
:105A50002F0008001A002800040019002700030086
:105A60001C002B0004001E002D00040020002F004D
:105A700004001F002E00030022003100080018005F
:105A8000280001001C002C0005001F00300006004B
:105A90002000320008001C002F0002001D002E0014
:105AA00004001D002F0005001D002F00050022002E
:105AB00034000A001E0030000600260038000E00E8
:105AC000240036000C00270039000F0024003500A8
:105AD0000B001D002F00050019002B000100200005
:105AE00032000800220033000900270036000D00B4
:105AF0002D003C001300290038000F00260037005D
:105B00000B00290038000D00270036000B0027008D
:105B100036000D002B003A00110029003A00100059
:105B2000280039000F00240035000B00330044002A
:105B30001A00280039000F002B003C0012002A0038
:105B40003C0014002F004100190028003A0010000A
:105B5000260038000E0029003B00110029003E00FD
:105B600013002B004000150028003D001200290002
:105B70003E00130008001A0002000D00200004007F
:105B80001100240006001300260006000F0022006A
:105B900006000A001C0002000C00200004000C009B
:105BA000200005001200250005000D002000040063
:105BB0001600270005001000200003001800270031
:105BC000060018002800040019002900050018002C
:105BD0002700060015002500010019002800070015
:105BE0001A00280007001D002C00050026003300C5
:105BF00008001E002A0002001A00290001001E00F1
:105C00002D0004001E002D0004001E002D000400C5
:105C100023002F0007001C00280001001B002A00A1
:105C200003002200310008001A00290001001700BB
:105C3000280001002000310007001E002F00020094
:105C40002000310004002200350008001F00310050
:105C500007001B002D000300200032000800200078
:105C6000320008002100330009001E003000060049
:105C7000260038000E002B003D0013001F003100ED
:105C80000700230035000B001F0031000700220031
:105C900034000A00270038000E00260035000C00F2
:105CA000250034000B002C003B0012002C003B00B0
:105CB0001000290038000D002300320007002500E5
:105CC00034000B002B003A001100220031000800C4
:105CD000250036000C00250036000C002800390095
:105CE0000F00270038000E00260037000D002D00A1
:105CF0003F0015002C003E001400270039000F0063
:105D00002D004200170026003B0010002B00400031
:105D10001500200035000A00240039000E0028007C
:105D20003D0012000D00210006000C0021000200C1
:105D30000B001E00020011002400080012002500C4
:105D4000070008001C0001000D00210005000C00E8
:105D500020000500100023000300110025000200B0
:105D60001300240004001300240004001600250082
:105D70000600170026000500130022000300130090
:105D8000220001001700270001001B002B00070064
:105D90001400220001001800260002002700330032
